:020000040800F2
:1000000000500020E50E0008000000000000000085
:1000100000000000000000000000000000000000E0
:1000200000000000000000000000000000000000D0
:10003000000000000000000000000000C10E0008E9
:100040000CB470B50C4600256FF000469CB00A4A0F
:1000500020AB059253F8042B02A9CDE901341B957E
:1000600004960796069400F013F9029B1D701CB0CD
:10007000BDE8704002B070470802FFFF0EB470B5D3
:1000800004466FF0004600259DB00B4A21AB0B499A
:10009000106853F8042B059102A9CDE901340496A8
:1000A00007961B95069400F0F3F8029B1D701DB097
:1000B000BDE8704003B07047000000200802FFFF59
:1000C0002DE9F0471D468F680C46AF4216460B6877
:1000D00036D8B1F90CC01CF4906F0ED13D461846CD
:1000E00031462A4600F0EAF90020A368DF1B2368A6
:1000F000A7602B442360BDE8F0874A69096902EBD9
:1001000042025F1A02EBD2726B1C52103B449342C4
:1001100092BF914699461A461CF4806F804611D0D2
:10012000114600F089FA824600B33A46216900F090
:10013000D7FBA38923F4906343F08003A38105E0F8
:100140002F46CCE700F056FB824658B10AEB070376
:10015000A9EB0707A760C4F810A02F46C4F81490B5
:100160002360BCE74046216900F0E6FA0C22A3892F
:100170004FF0FF3043F04003C8F80020A381BAE7F6
:100180002DE9F04F936883B092460190002B77D011
:100190004FF0000B17680C465D468B680A6848E014
:1001A000B4F90CC01CF4906F2FD0D4E90403A2EB77
:1001B000000803EB430202EBD27208F10101521076
:1001C0002944914292BF914689460A461CF4806FA9
:1001D00039D01146019800F02FFA064600283DD08C
:1001E0004246216900F07CFBA28922F4906242F031
:1001F0008002A28106EB0800A9EB08022661A8464E
:100200002E46A2602060C4F814903246594600F091
:1002100055F9DAF80810A3682268A3EB0803324402
:10022000491BA3602260CAF8081049B3D7E900B59A
:10023000083798461046002DF8D09D421E46AFD292
:10024000A8462E46E1E70146019800F0D3FA06469B
:100250000028CFD10198216900F06EFA0C21A38902
:10026000019D43F0400329600022A3814FF0FF303D
:100270000023CAF80820CAF8043003B0BDE8F08FA4
:1002800000200023CAF8043003B0BDE8F08F00BF9F
:100290002DE9F0471C468B890E461D0607469246FF
:1002A0009CB003D50B69002B00F0F080002343F2D3
:1002B000200209939AF80030039401257A4CADF896
:1002C0002920002B72D0D04603E018F8013F002B04
:1002D00073D0252BF9D1B8EB0A0971D198F8002019
:1002E000002A63D000234FF0FF3208F10108CDE966
:1002F0000523049307938DF853301A9305E0C846FD
:10030000001B05FA00F018430490C146052219F8B5
:10031000011B204600F0A4FACA46049B0028EED137
:10032000D80644BF20228DF85320190748BF2B223E
:1003300098F8001048BF8DF853202A294ED1039A0F
:1003400011680432002903927CDB079198F80110B0
:100350002E295BD00322554800F082FA40B140229A
:100360005249049B401A824013430AF1010A049344
:100370001AF8011B06224E488DF8281000F070FA7A
:10038000002865D04B48002855D003A9009132467B
:100390003846494B04A9AFF30080421C06D0099BA4
:1003A000034409939AF80030002B8CD1B3895B0683
:1003B00077D409981CB0BDE8F087B8EB0A09F5D0EE
:1003C0004B46524631463846FFF77AFE0130EDD0B3
:1003D000099B98F800204B44099381E7A1F1300272
:1003E000092A88BFC246B3D8079B01E009F1010979
:1003F00099F8001003EB830302EB4303A1F13002F1
:10040000092AF3D92E29CA460793A3D19AF80110D5
:100410002A2926D1039B0AF102001A680433002A14
:100420000393B8BF4FF0FF339AF80210059282464B
:10043000B8BF05938EE7039B073323F00703083308
:100440000393ACE7494243F00203079104937DE72D
:1004500003A9009132463846174B04A900F048FB27
:100460009BE70023A1F13002092A0AF1010A059352
:100470003FF670AF1AF8011F03EB830302EB43034F
:10048000A1F13002092AF5D9059363E7402100F074
:10049000D3F83060306110B14023736106E70C235C
:1004A0003B604FF0FF3085E7880F0008900F000891
:1004B000940F000800000000C10000088842F0B559
:1004C00014D98B18834211D9032A00EB020166D894
:1004D00002F1FF3C4AB16FEA0C0C0A469C4413F847
:1004E000011D634502F8011DF9D1F0BD032A0FD8A3
:1004F000034602F1FF3C002AF7D00CF1010C013B4E
:100500008C4411F8012B614503F8012FF9D1F0BD9E
:1005100041EA00039B073ED10F2A64D901F1100480
:10052000A446A2F11003203123F00F03194400F177
:10053000100E5CF8105C0CF1100C4EF8105C5CF8BE
:100540001C5C0EF1100E4EF81C5C5CF8185C4EF84A
:10055000185C5CF8145C8C454EF8145CE9D1E11829
:1005600012F00C0F034402F00F0E03F1100338D009
:100570008C462EF00305043D1A1F5E195CF8044BEF
:1005800042F8044FB242F9D10431043329442B44D8
:100590000EF00302ADE7034602F1FF3CADE741EA8E
:1005A0000304A4071F4602D002F1FF3C93E78C46E8
:1005B000A2F1040E2EF003068E1B4FEA9E0E644637
:1005C00053F8045DB4424CF8045DF8D1CEEB8E7361
:1005D00001EB830107EB83073B1F043902F00302A1
:1005E00076E7724685E703469646C1E770B5114E39
:1005F000054633680C46BBB12146284600F0C6FBD1
:10060000431C01460CD0C41C24F00304A04205D0B6
:100610002846611A00F0BAFB013001D0204670BDB7
:100620004FF0FF34204670BD194600F0AFFB30603C
:10063000E2E700BF8C0100202DE9F843CD1C25F036
:10064000030508350C2D38BF0C25002D064618DB98
:10065000A94216D8DFF8DC8000F0FEF8D8F80420B4
:10066000A2B1144603E0636822467BB11C462368AE
:100670005B1BF8D40B2B1FD8A242636854D0536085
:100680000CE00C2333600020BDE8F8832946304697
:10069000FFF7ACFF431C044619D00560304600F05C
:1006A000DDF804F10B00231D20F00700C21A1CBF67
:1006B0001B1AA350BDE8F8836119A242256014BF3C
:1006C0005160C8F80410635163684B60E6E7D8F8DE
:1006D00004701FB33C467F68002FFBD12368394666
:1006E000304604EB030900F051FB814516D1236825
:1006F0003046ED1A2946FFF779FF01300ED0236806
:10070000D8F804202B442360536883B1A34203D05C
:100710001A465B689C42FBD10023B0E70C233046AD
:10072000336000F09BF8AEE7C8F80430B6E7C8F8CD
:100730000470B3E78C010020002950D038B551F87F
:10074000043C0C1F002BB8BFE418054600F084F8E9
:10075000274A13682BB1A3420CD921686018834241
:100760002CD0284663601460BDE8384000F076B8AD
:10077000A3420FD81A465B68002BF9D111685018B4
:10078000844217D02CD3636054602846BDE83840BB
:1007900000F064B811685018A04214D020D8216825
:1007A00060188342EFD118685B680844C4E900030D
:1007B0005460EAE723680B441360E6E718685B6857
:1007C00008442060CDE7206801445018834211603E
:1007D000DBD1D3E900040144C2E90014D5E7704736
:1007E0000C2328462B60BDE8384000F037B800BF26
:1007F000900100202DE9F041144641B30AB30646AA
:100800000D4600F0BBFA8442074602D8B4EB500F05
:1008100013D821463046FFF70FFF804650B1BC4247
:100820002246294628BF3A4600F05AF82946304663
:10083000FFF782FF4046BDE8F081A8464046BDE88C
:10084000F081A046FFF778FF4046BDE8F0811146F1
:10085000BDE8F041FFF7F0BE704700BF704700BF32
:1008600030B586468007CCB215D0F4460EEB0205B3
:1008700007E0634613F8011BA14206D0990705D093
:100880009C4665456046F4D1002030BD013A724473
:100890009E46A2EB0C02032A0CD8002AF4D0734621
:1008A000724401E09A42EFD0184613F8011BA142AE
:1008B000F8D130BD714604EB042505EB05458E46A5
:1008C00051F8043B6B40A3F1013020EA030313F01D
:1008D000803FE4D1043A032AF1D88E46DDE700BF19
:1008E000844641EA000313F0030349D1403A23D37D
:1008F0000B6803604B6843608B688360CB68C360A0
:100900000B6903614B6943618B698361CB69C36187
:100910000B6A03624B6A43628B6A8362CB6AC3626F
:100920000B6B03634B6B43638B6B8363CB6BC36357
:1009300040304031403ADBD230320BD30B68036099
:100940004B6843608B688360CB68C36010301031A4
:10095000103AF3D20C3205D351F8043B40F8043B73
:10096000043AF9D2043208D0D2071CBF11F8013B77
:1009700000F8013B01D30B8803806046704700BF3D
:10098000082A13D38B07B1D010F00303AED0C3F104
:100990000403D21ADB071CBF11F8013B00F8013B2E
:1009A000A4D331F8023B20F8023B9FE7043AD9D3A5
:1009B000013A11F8013B00F8013BF9D20B780370C2
:1009C0004B7843708B788370604670472DE9F84F01
:1009D00092461F460A698B680C469A42B8BF1A466F
:1009E000CAF8002091F843300646DDF8289013B18C
:1009F0000132CAF80020226891065CD5DAF800308E
:100A00000233CAF80030226812F0060F11461DD1D9
:100A1000E1689942D8BF114618DD4FF0000804F193
:100A2000190B05E0E568DAF80030ED1A45450CDDF4
:100A300001235A4639463046C847013008F10108BB
:100A4000F0D14FF0FF30BDE8F88F216894F84330C3
:100A5000003B18BF01238A060AD53021E21882F82C
:100A600043101A4694F845102244023382F8441089
:100A70003946304604F14302C8470130E1D02368CB
:100A8000A26803F00603042B21691BD08A4224DDEF
:100A90004FF00008521A904400251A3401E04545F1
:100AA0001BDA0123224639463046C847013005F19A
:100AB0000105F4D1C5E712F0060F11D0003B18BFB5
:100AC0000123D5E7DAF80000E3688A42A3EB0003CC
:100AD00023EAE378DEDC002BDEDC0020BDE8F88FC3
:100AE000E168DAF800309942D8BF114695DCADE7ED
:100AF0002DE9F04717460A7E84B00C460646984614
:100B00000C9D01F1430C002A35D0A2F15803D9B253
:100B1000202969D8202B67D8DFE813F0E5006600AC
:100B20006600660066006600660066006600660095
:100B30006600AB007000660066006600660070002C
:100B4000660066006600660021008200C50066003F
:100B50006600B5006600820066006600EB002B6848
:100B60002268181D6169286010061B6802D45206AD
:100B700000F1DF8019600023E14623613B462146F6
:100B80003046CDF8008003AAFFF720FF013020D0C7
:100B90004A46394630462369C047013019D0236898
:100BA000E0689B07DDF80C9018D5484516DD002558
:100BB00004F1190A04E0E068A0EB0903AB420DDD83
:100BC0000123524639463046C047013005F1010540
:100BD000F1D14FF0FF3004B0BDE8F0874845B8BF11
:100BE000484604B0BDE8F087012084F8422004F1B3
:100BF00042090023206184F84330BFE72A68236854
:100C0000111D1806296002D4590600F1948012685B
:100C10001146002AC0F293804FF00A0E554813E0A7
:100C200020682B6810F0800F53F8041B02D1400697
:100C300048BF89B26F2A2B6000F090804FF00A0EF7
:100C40004C48002384F843306268002AA26052DBDB
:100C5000236823F00403236000294CD1002A40F0CC
:100C60008380E146BEF1080F56D0ACEB0903236147
:100C700084E72A680120116804322A6004F14209DD
:100C800084F84210B5E72B6800211A1D2A60D3F8BA
:100C9000009062684846FFF7E3FD002862D0A0EBB1
:100CA00009006060A5E7236843F0200323607822F1
:100CB000314884F845202A6813F0800F52F8041B4D
:100CC00003D113F0400F18BF89B22A60DA0744BF7E
:100CD00043F02003236019B9236823F02003236025
:100CE0004FF0100EADE75823224884F845302368B2
:100CF000E1E72368DBE77546E146B1FBF5F30A4619
:100D000005FB131A194610F80A30AA4209F8013DEA
:100D1000F3D2BEF1080FA8D12368DD07A5D562681C
:100D200023699A42A1DC302309F1FF3989F80030A8
:100D30009BE719801FE7B2F900100A4669E72D22E8
:100D400084F843206268002AA26002DB23F00403D7
:100D500023600A250748AE464942CDE74FF0080E0A
:100D600004486EE7606844E7037804F1420984F8B8
:100D7000423077E79C0F0008B00F000851F8043CA0
:100D8000181F002BBCBF0B58C0187047002238B585
:100D9000064D044608462A6000F096F8431C00D031
:100DA00038BD2B68002BFBD0236038BD9401002098
:100DB000F0B440F2413C42F208071C4B4FF0E021F6
:100DC00041F63F76002505249A6942F4804242F0BC
:100DD00004029A61DA6942F0C052DA615A6942F05B
:100DE00001025A61124AA3F56043D2F8040820F0C8
:100DF000F000C2F80408D2F8040840F0B000C2F8CD
:100E00000408C3F808C8C3F80C78D3F8142842F0D3
:100E10008002C3F81428074A136843F480731360F0
:100E20004E618D610C61F0BC704700BF0010024044
:100E3000000001400070004070B51B4E82B0FFF70B
:100E4000B7FFD6F8042C194D1FFA82FCBCF1330F02
:100E500028BF4FF0000C0CF10104A4B2C6F8044CFA
:100E6000134B144A144900942846FFF707F94FF032
:100E7000910C42F210714FF0E022104B06F55846EB
:100E80005C6C043624F001045C64DE641D659864C7
:100E9000C3F844C01369DB03FCD50139FAD1024B16
:100EA000C3F8041CFEE700BF00600040980100206A
:100EB0004C0F0008580F0008780F0008000002408F
:100EC000704700BF704700BF044A05491368002BF4
:100ED00008BF0B461844106018467047FC010020FC
:100EE00000020020DFF834D0002104E00C4B5B58F6
:100EF0000C4A535004310B480B4B42189A42F5D31D
:100F00000A4A02E0002342F8043B094B9A42F9D313
:100F1000FFF7D8FFFFF790FFFEE70000005000202A
:100F2000CC0F0008000000205000002050000020DE
:100F300000020020F8B500BFF8BC08BC9E46704710
:0C0F4000F8B500BFF8BC08BC9E46704726
:100F4C0049442D4E686F6D360000000049442D4811
:100F5C00452054484F4E47204E48554E472D42325F
:100F6C0033444344543036360000000025735F256B
:100F7C00733A42544E3A25750D0A0000232D302B3E
:100F8C0020000000686C4C00656667454647000011
:100F9C0030313233343536373839414243444546A3
:100FAC000000000030313233343536373839616265
:080FBC0063646566000000009B
:080FC4001CF9FF7F0100000091
:100FCC00040000200000000050000020B8000020A9
:100FDC0020010020000000000000000000000000C4
:100FEC0000000000000000000000000000000000F5
:100FFC0000000000000000000000000000000000E5
:10100C0000000000000000000000000000000000D4
:0400000508000EE5FC
:00000001FF
