:020000040800F2
:1000000000500020B9020008910200089502000883
:10001000990200089D020008A102000800000000EB
:10002000000000000000000000000000A502000821
:10003000A902000800000000AD020008B10200089B
:100040000503000805030008050300080503000870
:100050000503000805030008050300080503000860
:100060000503000805030008050300080503000850
:100070000503000805030008050300080503000840
:100080000503000805030008050300080503000830
:100090000503000805030008050300080503000820
:1000A0000503000805030008050300080503000810
:1000B0000503000805030008050300080503000800
:1000C00005030008050300080503000805030008F0
:1000D00005030008050300080503000805030008E0
:0C00E000050300080503000805030008E4
:1000EC000348044B834202D0034B03B118477047BB
:1000FC000000002000000020000000000548064B16
:10010C001B1AD90F01EBA301491002D0034B03B109
:10011C00184770470000002000000020000000007D
:10012C0010B5064C237843B9FFF7DAFF044B13B133
:10013C000448AFF300800123237010BD00000020A1
:10014C00000000000803000808B5044B1BB104496B
:10015C000448AFF30080BDE80840CFE70000000082
:10016C00040000200803000810B44FF480140C4B5A
:10017C000C4A1C6193689C07FCD541EA0021094894
:10018C00D16083689A07FCD5064A93681B06FCD499
:10019C001021034B10BC1961D3689368704700BFE2
:1001AC000008014000300140F8B54FF0E022002576
:1001BC00052641F63F774FF0100E40F6143C2D49C2
:1001CC005761956116618A692B4B42F48052324318
:1001DC008A611A68294C22F0704222F47F021A605C
:1001EC001A680F2042F0304242F432021A60C3F80F
:1001FC0010E0C4F800C02368294643F04003236094
:10020C00FFF7B2FF01210C20FFF7AEFF01210B20FD
:10021C00FFF7AAFF03210920FFF7A6FF08210A20F8
:10022C00FFF7A2FF0F210120FFF79EFF0F210220F5
:10023C00FFF79AFF124CA4FB0523DB0803EB8303A7
:10024C00A5EB4301C9B20120FFF78EFF092D8CBF2E
:10025C0001210F210220FFF787FF4FF47A714FF035
:10026C00E0221369DB03FCD50139FAD1013505F025
:10027C000F05E0E70010024000080140003001408B
:10028C00CDCCCCCC704700BFFEE700BFFEE700BF73
:10029C00FEE700BFFEE700BF704700BF704700BF1E
:1002AC00704700BF704700BF704700BFDFF830D009
:1002BC00002103E00B4B5B58435004310A480B4BB5
:1002CC0042189A42F6D30A4A02E0002342F8043B51
:1002DC00084B9A42F9D3FFF7E7FFFFF765FF70472A
:1002EC00005000202803000800000020000000201F
:1002FC00000000201C000020FEE70000F8B500BF45
:10030C00F8BC08BC9E467047F8B500BFF8BC08BCEA
:04031C009E46704742
:04032000550100087B
:040324002D0100089F
:04000005080002B934
:00000001FF
